{
  "_format": "hh-sol-artifact-1",
  "contractName": "Counter",
  "sourceName": "contracts/Counter.sol",
  "abi": [
    {
      "inputs": [],
      "stateMutability": "nonpayable",
      "type": "constructor"
    },
    {
      "inputs": [],
      "name": "count",
      "outputs": [],
      "stateMutability": "nonpayable",
      "type": "function"
    },
    {
      "inputs": [],
      "name": "counter",
      "outputs": [
        {
          "internalType": "uint256",
          "name": "",
          "type": "uint256"
        }
      ],
      "stateMutability": "view",
      "type": "function"
    },
    {
      "inputs": [
        {
          "internalType": "uint256",
          "name": "x",
          "type": "uint256"
        }
      ],
      "name": "set",
      "outputs": [],
      "stateMutability": "nonpayable",
      "type": "function"
    }
  ],
  "bytecode": "0x608060405234801561001057600080fd5b506000808190555061020b806100276000396000f3fe608060405234801561001057600080fd5b50600436106100415760003560e01c806306661abd1461004657806360fe47b11461005057806361bc221a1461006c575b600080fd5b61004e61008a565b005b61006a600480360381019061006591906100f9565b6100a1565b005b6100746100b8565b6040516100819190610135565b60405180910390f35b6001600054610099919061017f565b600081905550565b806000546100af919061017f565b60008190555050565b60005481565b600080fd5b6000819050919050565b6100d6816100c3565b81146100e157600080fd5b50565b6000813590506100f3816100cd565b92915050565b60006020828403121561010f5761010e6100be565b5b600061011d848285016100e4565b91505092915050565b61012f816100c3565b82525050565b600060208201905061014a6000830184610126565b92915050565b7f4e487b7100000000000000000000000000000000000000000000000000000000600052601160045260246000fd5b600061018a826100c3565b9150610195836100c3565b9250827fffffffffffffffffffffffffffffffffffffffffffffffffffffffffffffffff038211156101ca576101c9610150565b5b82820190509291505056fea2646970667358221220c02846ead93bec5a7f5e965fef641dff65b436460668552bfbbefe67defad6de64736f6c63430008090033",
  "linkReferences": {},
  "deployedLinkReferences": {}
}