{
  "_format": "hh-sol-artifact-1",
  "contractName": "Counter",
  "sourceName": "contracts/Counter.sol",
  "abi": [
    {
      "inputs": [
        {
          "internalType": "uint256",
          "name": "n",
          "type": "uint256"
        }
      ],
      "stateMutability": "nonpayable",
      "type": "constructor"
    },
    {
      "inputs": [],
      "name": "count",
      "outputs": [],
      "stateMutability": "nonpayable",
      "type": "function"
    },
    {
      "inputs": [],
      "name": "getCounter",
      "outputs": [
        {
          "internalType": "uint256",
          "name": "",
          "type": "uint256"
        }
      ],
      "stateMutability": "view",
      "type": "function"
    }
  ],
  "bytecode": "0x608060405234801561001057600080fd5b506040516105e33803806105e38339818101604052810190610032919061018e565b806000819055506100826040518060400160405280601381526020017f696e697420636f756e74657220776974683a20000000000000000000000000008152508261008860201b6100c41760201c565b50610293565b610126828260405160240161009e929190610263565b6040516020818303038152906040527f9710a9d0000000000000000000000000000000000000000000000000000000007bffffffffffffffffffffffffffffffffffffffffffffffffffffffff19166020820180517bffffffffffffffffffffffffffffffffffffffffffffffffffffffff838183161783525050505061012a60201b60201c565b5050565b60008151905060006a636f6e736f6c652e6c6f679050602083016000808483855afa5050505050565b600080fd5b6000819050919050565b61016b81610158565b811461017657600080fd5b50565b60008151905061018881610162565b92915050565b6000602082840312156101a4576101a3610153565b5b60006101b284828501610179565b91505092915050565b600081519050919050565b600082825260208201905092915050565b60005b838110156101f55780820151818401526020810190506101da565b83811115610204576000848401525b50505050565b6000601f19601f8301169050919050565b6000610226826101bb565b61023081856101c6565b93506102408185602086016101d7565b6102498161020a565b840191505092915050565b61025d81610158565b82525050565b6000604082019050818103600083015261027d818561021b565b905061028c6020830184610254565b9392505050565b610341806102a26000396000f3fe608060405234801561001057600080fd5b50600436106100365760003560e01c806306661abd1461003b5780638ada066e14610045575b600080fd5b610043610063565b005b61004d6100bb565b60405161005a91906101a2565b60405180910390f35b600160005461007291906101ec565b6000819055506100b96040518060400160405280601d81526020017f616674657220636f756e7428292c20636f756e7465722069733a2025640000008152506000546100c4565b565b60008054905090565b61015c82826040516024016100da9291906102db565b6040516020818303038152906040527f9710a9d0000000000000000000000000000000000000000000000000000000007bffffffffffffffffffffffffffffffffffffffffffffffffffffffff19166020820180517bffffffffffffffffffffffffffffffffffffffffffffffffffffffff8381831617835250505050610160565b5050565b60008151905060006a636f6e736f6c652e6c6f679050602083016000808483855afa5050505050565b6000819050919050565b61019c81610189565b82525050565b60006020820190506101b76000830184610193565b92915050565b7f4e487b7100000000000000000000000000000000000000000000000000000000600052601160045260246000fd5b60006101f782610189565b915061020283610189565b9250827fffffffffffffffffffffffffffffffffffffffffffffffffffffffffffffffff03821115610237576102366101bd565b5b828201905092915050565b600081519050919050565b600082825260208201905092915050565b60005b8381101561027c578082015181840152602081019050610261565b8381111561028b576000848401525b50505050565b6000601f19601f8301169050919050565b60006102ad82610242565b6102b7818561024d565b93506102c781856020860161025e565b6102d081610291565b840191505092915050565b600060408201905081810360008301526102f581856102a2565b90506103046020830184610193565b939250505056fea2646970667358221220fc658051f182619523c42c834aeb675b799fe26590b6ee5748a1f8dd7cf6bb0164736f6c63430008090033",
  "linkReferences": {},
  "deployedLinkReferences": {}
}